{
  "contractName": "myNFT",
  "abi": [
    {
      "inputs": [
        {
          "internalType": "string",
          "name": "_name",
          "type": "string"
        },
        {
          "internalType": "string",
          "name": "_symbol",
          "type": "string"
        }
      ],
      "stateMutability": "nonpayable",
      "type": "constructor"
    },
    {
      "anonymous": false,
      "inputs": [
        {
          "indexed": true,
          "internalType": "address",
          "name": "_owner",
          "type": "address"
        },
        {
          "indexed": true,
          "internalType": "address",
          "name": "_approved",
          "type": "address"
        },
        {
          "indexed": true,
          "internalType": "uint256",
          "name": "_tokenId",
          "type": "uint256"
        }
      ],
      "name": "Approval",
      "type": "event"
    },
    {
      "anonymous": false,
      "inputs": [
        {
          "indexed": true,
          "internalType": "address",
          "name": "_owner",
          "type": "address"
        },
        {
          "indexed": true,
          "internalType": "address",
          "name": "_operator",
          "type": "address"
        },
        {
          "indexed": false,
          "internalType": "bool",
          "name": "_approved",
          "type": "bool"
        }
      ],
      "name": "ApprovalForAll",
      "type": "event"
    },
    {
      "anonymous": false,
      "inputs": [
        {
          "indexed": true,
          "internalType": "address",
          "name": "_from",
          "type": "address"
        },
        {
          "indexed": true,
          "internalType": "address",
          "name": "_to",
          "type": "address"
        },
        {
          "indexed": true,
          "internalType": "uint256",
          "name": "_tokenId",
          "type": "uint256"
        }
      ],
      "name": "Transfer",
      "type": "event"
    },
    {
      "inputs": [
        {
          "internalType": "uint256",
          "name": "",
          "type": "uint256"
        }
      ],
      "name": "images",
      "outputs": [
        {
          "internalType": "string",
          "name": "name",
          "type": "string"
        },
        {
          "internalType": "string",
          "name": "url",
          "type": "string"
        },
        {
          "internalType": "string",
          "name": "myAttributes",
          "type": "string"
        }
      ],
      "stateMutability": "view",
      "type": "function",
      "constant": true
    },
    {
      "inputs": [
        {
          "internalType": "uint256",
          "name": "",
          "type": "uint256"
        }
      ],
      "name": "isForSale",
      "outputs": [
        {
          "internalType": "bool",
          "name": "",
          "type": "bool"
        }
      ],
      "stateMutability": "view",
      "type": "function",
      "constant": true
    },
    {
      "inputs": [
        {
          "internalType": "address",
          "name": "",
          "type": "address"
        }
      ],
      "name": "tokenBalance",
      "outputs": [
        {
          "internalType": "uint256",
          "name": "",
          "type": "uint256"
        }
      ],
      "stateMutability": "view",
      "type": "function",
      "constant": true
    },
    {
      "inputs": [
        {
          "internalType": "uint256",
          "name": "",
          "type": "uint256"
        }
      ],
      "name": "tokenOwner",
      "outputs": [
        {
          "internalType": "address",
          "name": "",
          "type": "address"
        }
      ],
      "stateMutability": "view",
      "type": "function",
      "constant": true
    },
    {
      "inputs": [
        {
          "internalType": "uint256",
          "name": "",
          "type": "uint256"
        },
        {
          "internalType": "uint256",
          "name": "",
          "type": "uint256"
        }
      ],
      "name": "tokenOwnerHistory",
      "outputs": [
        {
          "internalType": "address",
          "name": "",
          "type": "address"
        }
      ],
      "stateMutability": "view",
      "type": "function",
      "constant": true
    },
    {
      "inputs": [
        {
          "internalType": "uint256",
          "name": "",
          "type": "uint256"
        }
      ],
      "name": "tokenPrice",
      "outputs": [
        {
          "internalType": "uint256",
          "name": "",
          "type": "uint256"
        }
      ],
      "stateMutability": "view",
      "type": "function",
      "constant": true
    },
    {
      "inputs": [
        {
          "internalType": "address",
          "name": "_to",
          "type": "address"
        },
        {
          "internalType": "string",
          "name": "_name",
          "type": "string"
        },
        {
          "internalType": "string",
          "name": "_url",
          "type": "string"
        },
        {
          "internalType": "string",
          "name": "myAttributes",
          "type": "string"
        }
      ],
      "name": "mint",
      "outputs": [],
      "stateMutability": "nonpayable",
      "type": "function"
    },
    {
      "inputs": [
        {
          "internalType": "uint256",
          "name": "tokenId",
          "type": "uint256"
        }
      ],
      "name": "ownerHistoryOf",
      "outputs": [
        {
          "internalType": "address[]",
          "name": "",
          "type": "address[]"
        }
      ],
      "stateMutability": "view",
      "type": "function",
      "constant": true
    },
    {
      "inputs": [
        {
          "internalType": "uint256",
          "name": "_tokenId",
          "type": "uint256"
        }
      ],
      "name": "ownerOf",
      "outputs": [
        {
          "internalType": "address",
          "name": "",
          "type": "address"
        }
      ],
      "stateMutability": "view",
      "type": "function",
      "constant": true
    },
    {
      "inputs": [
        {
          "internalType": "uint256",
          "name": "_tokenId",
          "type": "uint256"
        }
      ],
      "name": "sellToken",
      "outputs": [],
      "stateMutability": "nonpayable",
      "type": "function"
    },
    {
      "inputs": [
        {
          "internalType": "uint256",
          "name": "_tokenId",
          "type": "uint256"
        },
        {
          "internalType": "bool",
          "name": "_forSale",
          "type": "bool"
        }
      ],
      "name": "onSale",
      "outputs": [],
      "stateMutability": "nonpayable",
      "type": "function"
    },
    {
      "inputs": [
        {
          "internalType": "uint256",
          "name": "_tokenId",
          "type": "uint256"
        }
      ],
      "name": "isOnSale",
      "outputs": [
        {
          "internalType": "bool",
          "name": "",
          "type": "bool"
        }
      ],
      "stateMutability": "view",
      "type": "function",
      "constant": true
    },
    {
      "inputs": [
        {
          "internalType": "uint256",
          "name": "_tokenId",
          "type": "uint256"
        }
      ],
      "name": "buyToken",
      "outputs": [],
      "stateMutability": "payable",
      "type": "function",
      "payable": true
    },
    {
      "inputs": [
        {
          "internalType": "address",
          "name": "_from",
          "type": "address"
        },
        {
          "internalType": "address",
          "name": "_to",
          "type": "address"
        },
        {
          "internalType": "uint256",
          "name": "_tokenId",
          "type": "uint256"
        }
      ],
      "name": "transferFrom",
      "outputs": [],
      "stateMutability": "nonpayable",
      "type": "function"
    },
    {
      "inputs": [
        {
          "internalType": "address",
          "name": "_owner",
          "type": "address"
        }
      ],
      "name": "balanceOf",
      "outputs": [
        {
          "internalType": "uint256",
          "name": "",
          "type": "uint256"
        }
      ],
      "stateMutability": "view",
      "type": "function",
      "constant": true
    }
  ],
  "bytecode": "0x60806040523480156200001157600080fd5b50604051620021a3380380620021a38339818101604052810190620000379190620001dc565b505062000261565b6000604051905090565b600080fd5b600080fd5b600080fd5b600080fd5b6000601f19601f8301169050919050565b7f4e487b7100000000000000000000000000000000000000000000000000000000600052604160045260246000fd5b620000a8826200005d565b810181811067ffffffffffffffff82111715620000ca57620000c96200006e565b5b80604052505050565b6000620000df6200003f565b9050620000ed82826200009d565b919050565b600067ffffffffffffffff82111562000110576200010f6200006e565b5b6200011b826200005d565b9050602081019050919050565b60005b83811015620001485780820151818401526020810190506200012b565b8381111562000158576000848401525b50505050565b6000620001756200016f84620000f2565b620000d3565b90508281526020810184848401111562000194576200019362000058565b5b620001a184828562000128565b509392505050565b600082601f830112620001c157620001c062000053565b5b8151620001d38482602086016200015e565b91505092915050565b60008060408385031215620001f657620001f562000049565b5b600083015167ffffffffffffffff8111156200021757620002166200004e565b5b6200022585828601620001a9565b925050602083015167ffffffffffffffff8111156200024957620002486200004e565b5b6200025785828601620001a9565b9150509250929050565b611f3280620002716000396000f3fe6080604052600436106100e85760003560e01c80636352211e1161008a578063cbd894c711610059578063cbd894c71461031d578063d4ddce8a1461035a578063eedc966a14610397578063f0f2805f146103d4576100e8565b80636352211e1461022757806370a082311461026457806384856482146102a15780638546d002146102e0576100e8565b806323b872dd116100c657806323b872dd1461017c5780632d296bf1146101a55780633102be4c146101c15780634a0706be146101fe576100e8565b8063166ab6be146100ed5780631caaa487146101165780632397e4d714610153575b600080fd5b3480156100f957600080fd5b50610114600480360381019061010f919061134e565b610411565b005b34801561012257600080fd5b5061013d6004803603810190610138919061138e565b610440565b60405161014a91906113fc565b60405180910390f35b34801561015f57600080fd5b5061017a6004803603810190610175919061138e565b610473565b005b34801561018857600080fd5b506101a3600480360381019061019e9190611443565b610542565b005b6101bf60048036038101906101ba919061138e565b61084f565b005b3480156101cd57600080fd5b506101e860048036038101906101e3919061138e565b610b08565b6040516101f59190611554565b60405180910390f35b34801561020a57600080fd5b50610225600480360381019061022091906116bc565b610ba9565b005b34801561023357600080fd5b5061024e6004803603810190610249919061138e565b610d90565b60405161025b91906113fc565b60405180910390f35b34801561027057600080fd5b5061028b60048036038101906102869190611777565b610dcd565b60405161029891906117b3565b60405180910390f35b3480156102ad57600080fd5b506102c860048036038101906102c3919061138e565b610e15565b6040516102d793929190611856565b60405180910390f35b3480156102ec57600080fd5b506103076004803603810190610302919061138e565b610fe7565b60405161031491906118b1565b60405180910390f35b34801561032957600080fd5b50610344600480360381019061033f91906118cc565b611007565b60405161035191906113fc565b60405180910390f35b34801561036657600080fd5b50610381600480360381019061037c919061138e565b611055565b60405161038e91906117b3565b60405180910390f35b3480156103a357600080fd5b506103be60048036038101906103b99190611777565b61106d565b6040516103cb91906117b3565b60405180910390f35b3480156103e057600080fd5b506103fb60048036038101906103f6919061138e565b611085565b60405161040891906118b1565b60405180910390f35b806003600084815260200190815260200160002060006101000a81548160ff0219169083151502179055505050565b60016020528060005260406000206000915054906101000a900473ffffffffffffffffffffffffffffffffffffffff1681565b6001600082815260200190815260200160002060009054906101000a900473ffffffffffffffffffffffffffffffffffffffff1673ffffffffffffffffffffffffffffffffffffffff163373ffffffffffffffffffffffffffffffffffffffff1614610514576040517f08c379a000000000000000000000000000000000000000000000000000000000815260040161050b90611958565b60405180910390fd5b61051f816001610411565b674563918244f40000600260008381526020019081526020016000208190555050565b600061054d82610d90565b9050600073ffffffffffffffffffffffffffffffffffffffff168473ffffffffffffffffffffffffffffffffffffffff1614156105bf576040517f08c379a00000000000000000000000000000000000000000000000000000000081526004016105b6906119ea565b60405180910390fd5b8373ffffffffffffffffffffffffffffffffffffffff168173ffffffffffffffffffffffffffffffffffffffff161461062d576040517f08c379a000000000000000000000000000000000000000000000000000000000815260040161062490611a7c565b60405180910390fd5b600073ffffffffffffffffffffffffffffffffffffffff168373ffffffffffffffffffffffffffffffffffffffff16141561069d576040517f08c379a000000000000000000000000000000000000000000000000000000000815260040161069490611b0e565b60405180910390fd5b60016000808673ffffffffffffffffffffffffffffffffffffffff1673ffffffffffffffffffffffffffffffffffffffff16815260200190815260200160002060008282546106ec9190611b5d565b9250508190555060006001600084815260200190815260200160002060006101000a81548173ffffffffffffffffffffffffffffffffffffffff021916908373ffffffffffffffffffffffffffffffffffffffff16021790555060016000808573ffffffffffffffffffffffffffffffffffffffff1673ffffffffffffffffffffffffffffffffffffffff16815260200190815260200160002060008282546107959190611b91565b92505081905550826001600084815260200190815260200160002060006101000a81548173ffffffffffffffffffffffffffffffffffffffff021916908373ffffffffffffffffffffffffffffffffffffffff160217905550818373ffffffffffffffffffffffffffffffffffffffff168273ffffffffffffffffffffffffffffffffffffffff167fddf252ad1be2c89b69c2b068fc378daa952ba7f163c4a11628f55a4df523b3ef60405160405180910390a450505050565b6003600082815260200190815260200160002060009054906101000a900460ff166108af576040517f08c379a00000000000000000000000000000000000000000000000000000000081526004016108a690611c59565b60405180910390fd5b6002600082815260200190815260200160002054341015610905576040517f08c379a00000000000000000000000000000000000000000000000000000000081526004016108fc90611ceb565b60405180910390fd5b600061091082610d90565b90508073ffffffffffffffffffffffffffffffffffffffff163373ffffffffffffffffffffffffffffffffffffffff161415610981576040517f08c379a000000000000000000000000000000000000000000000000000000000815260040161097890611d7d565b60405180910390fd5b8073ffffffffffffffffffffffffffffffffffffffff166108fc60026000858152602001908152602001600020549081150290604051600060405180830381858888f193505050501580156109da573d6000803e3d6000fd5b506109e6813384610542565b60046000838152602001908152602001600020339080600181540180825580915050600190039060005260206000200160009091909190916101000a81548173ffffffffffffffffffffffffffffffffffffffff021916908373ffffffffffffffffffffffffffffffffffffffff1602179055503373ffffffffffffffffffffffffffffffffffffffff166108fc600260008581526020019081526020016000205434610a939190611b5d565b9081150290604051600060405180830381858888f19350505050158015610abe573d6000803e3d6000fd5b5060006003600084815260200190815260200160002060006101000a81548160ff021916908315150217905550600060026000848152602001908152602001600020819055505050565b606060046000838152602001908152602001600020805480602002602001604051908101604052809291908181526020018280548015610b9d57602002820191906000526020600020905b8160009054906101000a900473ffffffffffffffffffffffffffffffffffffffff1673ffffffffffffffffffffffffffffffffffffffff1681526020019060010190808311610b53575b50505050509050919050565b600073ffffffffffffffffffffffffffffffffffffffff168473ffffffffffffffffffffffffffffffffffffffff161415610c19576040517f08c379a0000000000000000000000000000000000000000000000000000000008152600401610c1090611de9565b60405180910390fd5b60006005805490509050610c2c816110af565b15610c6c576040517f08c379a0000000000000000000000000000000000000000000000000000000008152600401610c6390611e7b565b60405180910390fd5b600560405180606001604052808681526020018581526020018481525090806001815401808255809150506001900390600052602060002090600302016000909190919091506000820151816000019080519060200190610cce929190611229565b506020820151816001019080519060200190610ceb929190611229565b506040820151816002019080519060200190610d08929190611229565b50505060046000828152602001908152602001600020859080600181540180825580915050600190039060005260206000200160009091909190916101000a81548173ffffffffffffffffffffffffffffffffffffffff021916908373ffffffffffffffffffffffffffffffffffffffff160217905550610d898582611121565b5050505050565b60006001600083815260200190815260200160002060009054906101000a900473ffffffffffffffffffffffffffffffffffffffff169050919050565b60008060008373ffffffffffffffffffffffffffffffffffffffff1673ffffffffffffffffffffffffffffffffffffffff168152602001908152602001600020549050919050565b60058181548110610e2557600080fd5b9060005260206000209060030201600091509050806000018054610e4890611eca565b80601f0160208091040260200160405190810160405280929190818152602001828054610e7490611eca565b8015610ec15780601f10610e9657610100808354040283529160200191610ec1565b820191906000526020600020905b815481529060010190602001808311610ea457829003601f168201915b505050505090806001018054610ed690611eca565b80601f0160208091040260200160405190810160405280929190818152602001828054610f0290611eca565b8015610f4f5780601f10610f2457610100808354040283529160200191610f4f565b820191906000526020600020905b815481529060010190602001808311610f3257829003601f168201915b505050505090806002018054610f6490611eca565b80601f0160208091040260200160405190810160405280929190818152602001828054610f9090611eca565b8015610fdd5780601f10610fb257610100808354040283529160200191610fdd565b820191906000526020600020905b815481529060010190602001808311610fc057829003601f168201915b5050505050905083565b60036020528060005260406000206000915054906101000a900460ff1681565b6004602052816000526040600020818154811061102357600080fd5b906000526020600020016000915091509054906101000a900473ffffffffffffffffffffffffffffffffffffffff1681565b60026020528060005260406000206000915090505481565b60006020528060005260406000206000915090505481565b60006003600083815260200190815260200160002060009054906101000a900460ff169050919050565b6000806001600084815260200190815260200160002060009054906101000a900473ffffffffffffffffffffffffffffffffffffffff169050600073ffffffffffffffffffffffffffffffffffffffff168173ffffffffffffffffffffffffffffffffffffffff161415915050919050565b816001600083815260200190815260200160002060006101000a81548173ffffffffffffffffffffffffffffffffffffffff021916908373ffffffffffffffffffffffffffffffffffffffff16021790555060016000808473ffffffffffffffffffffffffffffffffffffffff1673ffffffffffffffffffffffffffffffffffffffff16815260200190815260200160002060008282546111c29190611b91565b92505081905550808273ffffffffffffffffffffffffffffffffffffffff16600073ffffffffffffffffffffffffffffffffffffffff167fddf252ad1be2c89b69c2b068fc378daa952ba7f163c4a11628f55a4df523b3ef60405160405180910390a45050565b82805461123590611eca565b90600052602060002090601f016020900481019282611257576000855561129e565b82601f1061127057805160ff191683800117855561129e565b8280016001018555821561129e579182015b8281111561129d578251825591602001919060010190611282565b5b5090506112ab91906112af565b5090565b5b808211156112c85760008160009055506001016112b0565b5090565b6000604051905090565b600080fd5b600080fd5b6000819050919050565b6112f3816112e0565b81146112fe57600080fd5b50565b600081359050611310816112ea565b92915050565b60008115159050919050565b61132b81611316565b811461133657600080fd5b50565b60008135905061134881611322565b92915050565b60008060408385031215611365576113646112d6565b5b600061137385828601611301565b925050602061138485828601611339565b9150509250929050565b6000602082840312156113a4576113a36112d6565b5b60006113b284828501611301565b91505092915050565b600073ffffffffffffffffffffffffffffffffffffffff82169050919050565b60006113e6826113bb565b9050919050565b6113f6816113db565b82525050565b600060208201905061141160008301846113ed565b92915050565b611420816113db565b811461142b57600080fd5b50565b60008135905061143d81611417565b92915050565b60008060006060848603121561145c5761145b6112d6565b5b600061146a8682870161142e565b935050602061147b8682870161142e565b925050604061148c86828701611301565b9150509250925092565b600081519050919050565b600082825260208201905092915050565b6000819050602082019050919050565b6114cb816113db565b82525050565b60006114dd83836114c2565b60208301905092915050565b6000602082019050919050565b600061150182611496565b61150b81856114a1565b9350611516836114b2565b8060005b8381101561154757815161152e88826114d1565b9750611539836114e9565b92505060018101905061151a565b5085935050505092915050565b6000602082019050818103600083015261156e81846114f6565b905092915050565b600080fd5b600080fd5b6000601f19601f8301169050919050565b7f4e487b7100000000000000000000000000000000000000000000000000000000600052604160045260246000fd5b6115c982611580565b810181811067ffffffffffffffff821117156115e8576115e7611591565b5b80604052505050565b60006115fb6112cc565b905061160782826115c0565b919050565b600067ffffffffffffffff82111561162757611626611591565b5b61163082611580565b9050602081019050919050565b82818337600083830152505050565b600061165f61165a8461160c565b6115f1565b90508281526020810184848401111561167b5761167a61157b565b5b61168684828561163d565b509392505050565b600082601f8301126116a3576116a2611576565b5b81356116b384826020860161164c565b91505092915050565b600080600080608085870312156116d6576116d56112d6565b5b60006116e48782880161142e565b945050602085013567ffffffffffffffff811115611705576117046112db565b5b6117118782880161168e565b935050604085013567ffffffffffffffff811115611732576117316112db565b5b61173e8782880161168e565b925050606085013567ffffffffffffffff81111561175f5761175e6112db565b5b61176b8782880161168e565b91505092959194509250565b60006020828403121561178d5761178c6112d6565b5b600061179b8482850161142e565b91505092915050565b6117ad816112e0565b82525050565b60006020820190506117c860008301846117a4565b92915050565b600081519050919050565b600082825260208201905092915050565b60005b838110156118085780820151818401526020810190506117ed565b83811115611817576000848401525b50505050565b6000611828826117ce565b61183281856117d9565b93506118428185602086016117ea565b61184b81611580565b840191505092915050565b60006060820190508181036000830152611870818661181d565b90508181036020830152611884818561181d565b90508181036040830152611898818461181d565b9050949350505050565b6118ab81611316565b82525050565b60006020820190506118c660008301846118a2565b92915050565b600080604083850312156118e3576118e26112d6565b5b60006118f185828601611301565b925050602061190285828601611301565b9150509250929050565b7f4f6e6c79206f776e65722063616e2073656c6c20746f6b656e00000000000000600082015250565b60006119426019836117d9565b915061194d8261190c565b602082019050919050565b6000602082019050818103600083015261197181611935565b9050919050565b7f56616c69646174696f6e204661696c65643a2053656c6c6572206d757374206e60008201527f6f7420626520656d707479206164647265737300000000000000000000000000602082015250565b60006119d46033836117d9565b91506119df82611978565b604082019050919050565b60006020820190508181036000830152611a03816119c7565b9050919050565b7f56616c69646174696f6e204661696c65643a2053656c6c6572206d757374206260008201527f65206f776e657200000000000000000000000000000000000000000000000000602082015250565b6000611a666027836117d9565b9150611a7182611a0a565b604082019050919050565b60006020820190508181036000830152611a9581611a59565b9050919050565b7f56616c69646174696f6e204661696c65643a204275796572206d757374206e6f60008201527f7420626520656d70747920616464726573730000000000000000000000000000602082015250565b6000611af86032836117d9565b9150611b0382611a9c565b604082019050919050565b60006020820190508181036000830152611b2781611aeb565b9050919050565b7f4e487b7100000000000000000000000000000000000000000000000000000000600052601160045260246000fd5b6000611b68826112e0565b9150611b73836112e0565b925082821015611b8657611b85611b2e565b5b828203905092915050565b6000611b9c826112e0565b9150611ba7836112e0565b9250827fffffffffffffffffffffffffffffffffffffffffffffffffffffffffffffffff03821115611bdc57611bdb611b2e565b5b828201905092915050565b7f56616c69646174696f6e206661696c65643a20546f6b656e206973206e6f742060008201527f6f6e2073616c6500000000000000000000000000000000000000000000000000602082015250565b6000611c436027836117d9565b9150611c4e82611be7565b604082019050919050565b60006020820190508181036000830152611c7281611c36565b9050919050565b7f56616c69646174696f6e206661696c65643a204e6f7420656e6f75676820455460008201527f4800000000000000000000000000000000000000000000000000000000000000602082015250565b6000611cd56021836117d9565b9150611ce082611c79565b604082019050919050565b60006020820190508181036000830152611d0481611cc8565b9050919050565b7f56616c69646174696f6e206661696c65643a20596f752063616e6e6f7420627560008201527f7920796f7572206f776e20746f6b656e00000000000000000000000000000000602082015250565b6000611d676030836117d9565b9150611d7282611d0b565b604082019050919050565b60006020820190508181036000830152611d9681611d5a565b9050919050565b7f456d70747920616464726573732063616e6e6f74206d696e74204e4654000000600082015250565b6000611dd3601d836117d9565b9150611dde82611d9d565b602082019050919050565b60006020820190508181036000830152611e0281611dc6565b9050919050565b7f3120746f6b656e49642063616e206f6e6c792062652061737369676e6564207460008201527f6f2031204e465400000000000000000000000000000000000000000000000000602082015250565b6000611e656027836117d9565b9150611e7082611e09565b604082019050919050565b60006020820190508181036000830152611e9481611e58565b9050919050565b7f4e487b7100000000000000000000000000000000000000000000000000000000600052602260045260246000fd5b60006002820490506001821680611ee257607f821691505b60208210811415611ef657611ef5611e9b565b5b5091905056fea26469706673582212207dbd84ae9d5276d31bcb419064eebd455bf7c2c89e7c6fbde5cbf60533b2021664736f6c634300080a0033",
  "immutableReferences": {},
  "source": "// SPDX-License-Identifier: UNLICENSED\r\npragma solidity ^0.8.10;\r\n\r\nimport \"./myERC721.sol\";\r\n\r\ncontract myNFT is ERC721 {\r\n    // ERC721  \r\n\r\n    /*    mapping */\r\n    /*   NFT   */\r\n    mapping(address => uint256) public tokenBalance;\r\n    /* Id    */\r\n    mapping(uint256 => address) public tokenOwner;\r\n    /* Id   (  5 ETH,  0) */\r\n    mapping(uint256 => uint256) public tokenPrice;\r\n    /* Id    */\r\n    mapping(uint256 => bool) public isForSale;\r\n    /* Id     */\r\n    mapping(uint256 => address[]) public tokenOwnerHistory;\r\n\r\n    // NFT \r\n    struct Image {\r\n        string name;\r\n        string url;\r\n        string myAttributes;\r\n        /*       . */\r\n    }\r\n    Image[] public images;\r\n\r\n    constructor(\r\n        string memory _name,\r\n        string memory _symbol\r\n    ) ERC721() {}\r\n\r\n    function mint(\r\n        address _to,   // NFT   \r\n        string memory _name,   // NFT \r\n        string memory _url,   // NFT path\r\n        string memory myAttributes   // NFT \r\n    ) public {\r\n        /* NFT   address(0)   */\r\n        require(/*  */_to != address(0), \"Empty address cannot mint NFT\");\r\n        uint _tokenId = /* ID   0   */ images.length;\r\n        require(!_exists(_tokenId), \"1 tokenId can only be assigned to 1 NFT\");\r\n        /*  Id    NFT    */\r\n        images.push(  /* images   NFT  */\r\n            Image(_name, _url, myAttributes)\r\n        );\r\n        tokenOwnerHistory[_tokenId].push(_to);\r\n        /*  NFT      */\r\n        _mint(_to, _tokenId);\r\n    }\r\n\r\n    // nft  \r\n    function _mint(address to, uint256 tokenId) internal {\r\n        tokenOwner[tokenId] = to;\r\n        tokenBalance[to] += 1;\r\n        emit Transfer(address(0), to, tokenId);\r\n    }\r\n\r\n    // tokenId   \r\n    function ownerHistoryOf(uint256 tokenId) public\r\n        view returns (address[] memory) {\r\n        return /*  */ tokenOwnerHistory[tokenId];\r\n    }\r\n\r\n    // NFT id   \r\n    function _exists(uint256 tokenId) internal\r\n        view returns (bool) {\r\n        /* tokenId  . */\r\n        address owner = /*  */  tokenOwner[tokenId];\r\n        return owner != address(0);\r\n    }   \r\n\r\n    //    \r\n    function ownerOf(uint256 _tokenId) public\r\n        view returns (address) {\r\n        return /*  */tokenOwner[_tokenId];\r\n    }\r\n\r\n    //   \r\n    function sellToken(uint256 _tokenId) public {\r\n        /*     Id  . */\r\n        require(/*  */msg.sender == tokenOwner[_tokenId], \"Only owner can sell token\");\r\n        /* onSale    Id   true . */\r\n        onSale(/*  */_tokenId, true);\r\n        /*   5 ETH . */\r\n        tokenPrice[_tokenId] = 5 ether;\r\n    }\r\n\r\n    //    \r\n    function onSale(uint256 _tokenId, bool _forSale) public {\r\n        isForSale[_tokenId] = /*  */_forSale;\r\n    }\r\n\r\n    //    \r\n    function isOnSale(uint256 _tokenId) public\r\n        view returns (bool) {\r\n        return /*  */ isForSale[_tokenId];\r\n    }\r\n\r\n    //   \r\n    function buyToken(uint256 _tokenId) public payable {\r\n        /*\r\n           :\r\n          1  \r\n          2       \r\n          3     \r\n        */\r\n       \r\n        require(isForSale[_tokenId], \"Validation failed: Token is not on sale\");\r\n        require(msg.value >= tokenPrice[_tokenId], \"Validation failed: Not enough ETH\");\r\n        address owner = ownerOf(_tokenId);\r\n        require(msg.sender != owner, \"Validation failed: You cannot buy your own token\");\r\n\r\n\r\n        /*   ETH   */\r\n        payable(owner).transfer(/*  */tokenPrice[_tokenId]);\r\n        /*     */\r\n        transferFrom(owner, msg.sender, _tokenId);\r\n\r\n        /*       */\r\n        tokenOwnerHistory[_tokenId].push(msg.sender);\r\n        /*        */\r\n        payable(msg.sender).transfer(msg.value - tokenPrice[_tokenId]);\r\n\r\n        \r\n        /*     */\r\n        isForSale[_tokenId] = false;\r\n        tokenPrice[_tokenId] = 0;\r\n    }\r\n\r\n    //   \r\n    function transferFrom(\r\n        address _from,\r\n        address _to,\r\n        uint256 _tokenId\r\n    ) public {\r\n        /*\r\n            Id     :\r\n          1      Id  \r\n          2     \r\n        */\r\n         address owner = ownerOf(_tokenId);\r\n        require(_from != address(0), \"Validation Failed: Seller must not be empty address\");\r\n        require(owner == _from, \"Validation Failed: Seller must be owner\");\r\n        require(_to != address(0), \"Validation Failed: Buyer must not be empty address\");\r\n\r\n        /*\r\n              \r\n          Id    \r\n        */\r\n        tokenBalance[_from] -= 1;\r\n        tokenOwner[_tokenId] = /*      */address(0); \r\n        tokenBalance[_to] += 1;\r\n        tokenOwner[_tokenId] = /*  */ _to;\r\n        /*     */\r\n        emit Transfer(owner, _to, _tokenId);\r\n    }\r\n\r\n    //     \r\n    function balanceOf(address _owner) public\r\n        view override returns (uint256) {\r\n        return tokenBalance[_owner];\r\n    }\r\n}",
  "sourcePath": "C:\\Users\\HwangTaeyeon\\Desktop\\hwangz\\workspace\\practice\\cs\\blockchain\\ethurium_solidity#2-1\\Practice_2 (1)\\contracts\\myNFT.sol",
  "compiler": {
    "name": "solc",
    "version": "0.8.10+commit.fc410830.Emscripten.clang"
  },
  "schemaVersion": "3.4.14",
  "updatedAt": "2023-06-17T11:44:31.475Z",
  "networkType": "ethereum",
  "devdoc": {
    "kind": "dev",
    "methods": {},
    "version": 1
  },
  "userdoc": {
    "kind": "user",
    "methods": {},
    "version": 1
  }
}